:020000040000FA
:1000000088A50020B148000087C900009D48000075
:100010009D4800009D4800009D4800009D4800004C
:10002000000000000000000000000000514A000035
:100030009D48000000000000114A00009D4800009B
:10004000CD4B0000CD4B0000CD4B0000CD4B000050
:10005000CD4B0000CD4B0000CD4B0000CD4B000040
:10006000CD4B0000CD4B0000CD4B0000CD4B000030
:10007000CD4B0000CD4B0000CD4B0000CD4B000020
:10008000CD4B0000CD4B0000CD4B0000CD4B000010
:10009000CD4B0000CD4B0000CD4B0000CD4B000000
:1000A000CD4B0000CD4B0000CD4B0000CD4B0000F0
:1000B000CD4B0000CD4B0000CD4B0000CD4B0000E0
:1000C000CD4B0000CD4B0000CD4B0000CD4B0000D0
:1000D000CD4B0000CD4B0000CD4B0000CD4B0000C0
:1000E000CD4B0000CD4B0000CD4B0000CD4B0000B0
:1000F000CD4B0000CD4B0000CD4B0000CD4B0000A0
:10010000CD4B0000CD4B0000CD4B0000CD4B00008F
:10011000CD4B0000CD4B0000CD4B0000CD4B00007F
:10012000CD4B0000CD4B0000CD4B0000CD4B00006F
:10013000CD4B0000CD4B0000CD4B0000CD4B00005F
:10014000CD4B0000CD4B0000CD4B0000CD4B00004F
:04015000CD4B000093
:1001580081F0004102E000BF83F0004330B54FEA70
:1001680041044FEA430594EA050F08BF90EA020FDD
:100178001FBF54EA000C55EA020C7FEA645C7FEA70
:10018800655C00F0E2804FEA5454D4EB5555B8BF93
:100198006D420CDD2C4480EA020281EA030382EA04
:1001A800000083EA010180EA020281EA0303362D96
:1001B80088BF30BD11F0004F4FEA01314FF4801C69
:1001C8004CEA113102D0404261EB410113F0004F7B
:1001D8004FEA03334CEA133302D0524263EB430332
:1001E80094EA050F00F0A780A4F10104D5F1200ED0
:1001F8000DDB02FA0EFC22FA05F2801841F100012B
:1002080003FA0EF2801843FA05F359410EE0A5F1FE
:1002180020050EF1200E012A03FA0EFC28BF4CF02F
:10022800020C43FA05F3C01851EBE37101F00045E5
:1002380007D54FF0000EDCF1000C7EEB00006EEBF2
:100248000101B1F5801F1BD3B1F5001F0CD349087C
:100258005FEA30004FEA3C0C04F101044FEA4452D3
:1002680012F5800F80F09A80BCF1004F08BF5FEA5A
:10027800500C50F1000041EB045141EA050130BD3A
:100288005FEA4C0C404141EB0101013C28BFB1F54C
:10029800801FE9D291F0000F04BF01460020B1FA97
:1002A80081F308BF2033A3F10B03B3F120020CDA6A
:1002B8000C3208DD02F1140CC2F10C0201FA0CF048
:1002C80021FA02F10CE002F11402D8BFC2F1200CAD
:1002D80001FA02F120FA0CFCDCBF41EA0C01904063
:1002E800E41AA2BF01EB0451294330BD6FEA0404AC
:1002F8001F3C1CDA0C340EDC04F11404C4F1200297
:1003080020FA04F001FA02F340EA030021FA04F3A8
:1003180045EA030130BDC4F10C04C4F1200220FAFF
:1003280002F001FA04F340EA0300294630BD21FA3D
:1003380004F0294630BD94F0000F83F4801306BF03
:1003480081F480110134013D4EE77FEA645C18BFF7
:100358007FEA655C29D094EA050F08BF90EA020F8E
:1003680005D054EA000C04BF1946104630BD91EA86
:10037800030F1EBF0021002030BD5FEA545C05D189
:100388004000494128BF41F0004130BD14F58004C8
:100398003CBF01F5801130BD01F0004545F0FE413C
:1003A80041F470014FF0000030BD7FEA645C1ABF71
:1003B800194610467FEA655C1CBF0B46024650EAA8
:1003C800013406BF52EA033591EA030F41F40021D4
:1003D80030BD00BF90F0000F04BF0021704730B55A
:1003E8004FF4806404F132044FF000054FF000012F
:1003F80050E700BF90F0000F04BF0021704730B5F0
:100408004FF4806404F1320410F0004548BF4042C4
:100418004FF000013EE700BF42004FEAE2014FEA19
:1004280031014FEA02701FBF12F07F4393F07F4FF4
:1004380081F06051704732F07F4208BF704793F0F7
:100448007F4F04BF41F40021704730B54FF460740A
:1004580001F0004521F000411CE700BF50EA01020D
:1004680008BF704730B54FF000050AE050EA0102B6
:1004780008BF704730B511F0004502D5404261EB26
:1004880041014FF4806404F132045FEA915C3FF467
:10049800D8AE4FF003025FEADC0C18BF03325FEA04
:1004A800DC0C18BF033202EBDC02C2F1200300FAB5
:1004B80003FC20FA02F001FA03FE40EA0E0021FADA
:1004C80002F11444BDE600BF70B54FF0FF0C4CF4C8
:1004D800E06C1CEA11541DBF1CEA135594EA0C0F7A
:1004E80095EA0C0F00F0DEF82C4481EA030621EAB5
:1004F8004C5123EA4C5350EA013518BF52EA0335F0
:1005080041F4801143F4801338D0A0FB02CE4FF0A1
:100518000005E1FB02E506F00042E0FB03E54FF0D1
:100528000006E1FB03569CF0000F18BF4EF0010EC9
:10053800A4F1FF04B6F5007F64F5407404D25FEAC5
:100548004E0E6D4146EB060642EAC62141EA555178
:100558004FEAC52040EA5E504FEACE2EB4F1FD0CBA
:1005680088BFBCF5E06F1ED8BEF1004F08BF5FEA38
:10057800500E50F1000041EB045170BD06F00046EA
:1005880046EA010140EA020081EA0301B4EB5C0497
:10059800C2BFD4EB0C0541EA045170BD41F480118F
:1005A8004FF0000E013C00F3AB8014F1360FDEBFB4
:1005B800002001F0004170BDC4F10004203C35DA90
:1005C8000C341BDC04F11404C4F1200500FA05F313
:1005D80020FA04F001FA05F240EA020001F00042B4
:1005E80021F0004110EBD37021FA04F642EB06012A
:1005F8005EEA430E08BF20EAD37070BDC4F10C0454
:10060800C4F1200500FA04F320FA05F001FA04F217
:1006180040EA020001F0004110EBD37041F1000103
:100628005EEA430E08BF20EAD37070BDC4F120050E
:1006380000FA05F24EEA020E20FA04F301FA05F276
:1006480043EA020321FA04F001F0004121FA04F21E
:1006580020EA020000EBD3705EEA430E08BF20EAEE
:10066800D37070BD94F0000F0FD101F00046400028
:1006780041EB010111F4801F08BF013CF7D041EAAA
:10068800060195F0000F18BF704703F000465200AE
:1006980043EB030313F4801F08BF013DF7D043EA7F
:1006A8000603704794EA0C0F0CEA135518BF95EA35
:1006B8000C0F0CD050EA410618BF52EA4306D1D1BC
:1006C80081EA030101F000414FF0000070BD50EADB
:1006D800410606BF1046194652EA430619D094EA65
:1006E8000C0F02D150EA013613D195EA0C0F05D14F
:1006F80052EA03361CBF104619460AD181EA0301A3
:1007080001F0004141F0FE4141F470014FF000005A
:1007180070BD41F0FE4141F4780170BD70B54FF0F5
:10072800FF0C4CF4E06C1CEA11541DBF1CEA135575
:1007380094EA0C0F95EA0C0F00F0A7F8A4EB050457
:1007480081EA030E52EA03354FEA013100F088804E
:100758004FEA03334FF0805545EA131343EA126317
:100768004FEA022245EA111545EA10654FEA0026CC
:100778000EF000419D4208BF964244F1FD0404F585
:10078800407402D25B084FEA3202B61A65EB0305E1
:100798005B084FEA32024FF480104FF4002CB6EB9E
:1007A800020E75EB030E22BFB61A754640EA0C001E
:1007B8005B084FEA3202B6EB020E75EB030E22BF5E
:1007C800B61A754640EA5C005B084FEA3202B6EB9F
:1007D800020E75EB030E22BFB61A754640EA9C005E
:1007E8005B084FEA3202B6EB020E75EB030E22BF2E
:1007F800B61A754640EADC0055EA060E18D04FEAEC
:10080800051545EA16754FEA06164FEAC30343EA8B
:1008180052734FEAC2025FEA1C1CC0D111F4801F58
:100828000BD141EA00014FF000004FF0004CB6E751
:1008380011F4801F04BF01430020B4F1FD0C88BFF0
:10084800BCF5E06F3FF6AFAEB5EB030C04BFB6EBFB
:10085800020C5FEA500C50F1000041EB045170BDEE
:100868000EF0004E4EEA113114EB5C04C2BFD4EB1B
:100878000C0541EA045170BD41F480114FF0000E9F
:10088800013C90E645EA060E8DE60CEA135594EA1B
:100898000C0F08BF95EA0C0F3FF43BAF94EA0C0F1E
:1008A8000AD150EA01347FF434AF95EA0C0F7FF493
:1008B80025AF104619462CE795EA0C0F06D152EAE7
:1008C80003353FF4FDAE1046194622E750EA4106CB
:1008D80018BF52EA43067FF4C5AE50EA41047FF4DC
:1008E8000DAF52EA43057FF4EBAE12E74FF0FF3C41
:1008F80006E000BF4FF0010C02E000BF4FF0010C12
:100908004DF804CD4FEA410C7FEA6C5C4FEA430C8A
:1009180018BF7FEA6C5C1BD001B050EA410C0CBFD9
:1009280052EA430C91EA030F02BF90EA020F00203B
:10093800704710F1000F91EA030F58BF994208BFA2
:1009480090422CBFD8176FEAE37040F0010070475F
:100958004FEA410C7FEA6C5C02D150EA013C07D1B6
:100968004FEA430C7FEA6C5CD6D152EA033CD3D001
:100978005DF8040B704700BF8446104662468C46FB
:100988001946634600E000BF01B5FFF7B7FF00282E
:1009980048BF10F1000F01BD4DF808EDFFF7F4FF57
:1009A8000CBF012000205DF808FB00BF4DF808EDE2
:1009B800FFF7EAFF34BF012000205DF808FB00BF05
:1009C8004DF808EDFFF7E0FF94BF012000205DF827
:1009D80008FB00BF4DF808EDFFF7CEFF94BF0120DC
:1009E80000205DF808FB00BF4DF808EDFFF7C4FFD5
:1009F80034BF012000205DF808FB00BF4FEA410C1E
:100A08007FEA6C5C02D150EA013C0AD14FEA430C00
:100A18007FEA6C5C02D152EA033C02D14FF000003D
:100A280070474FF0010070474FEA410212F500127B
:100A380015D211D56FF47873B3EB625212D94FEA1D
:100A4800C12343F0004343EA505311F0004F23FA07
:100A580002F018BF404270474FF00000704750EA5C
:100A6800013005D111F0004008BF6FF00040704719
:100A78004FF00000704700BF53B94AB9002908BFBA
:100A880000281CBF4FF0FF314FF0FF3000F00CB8CA
:100A9800ADF1080C6DE904CE00F010F8DDF804E0C3
:100AA800DDE9022304B07047704700BF034613F81E
:100AB800012B002AFBD1181A013870472DE9F0479D
:100AC80086468C460846089E154674461946002BED
:100AD80040F0C1808542B2FA82F245D94AB1C2F1EA
:100AE800200300FA02FC954094402EFA03F343EAEF
:100AF8000C0C4FEA154EA8B2230CBCFBFEF80EFBFB
:100B080018CC08FB00F943EA0C43994528D9EB189F
:100B180008F1FF3704D2994502D9A8F102072B44FE
:100B2800A3EB0903A4B2B3FBFEFC0EFB1C330CFBC6
:100B380000F044EA0344A04214D92C190CF1FF3305
:100B480004D2A04202D9ACF102032C44241A43EA8D
:100B580007401EB1D440002334607360BDE8F087BD
:100B68004746DDE76346F1E792BB431B01214FEAA5
:100B7800154EAFB2200CB3FBFEFC0EFB1C330CFB76
:100B880007F840EA0343984561D9EB180CF1FF30A8
:100B980004D2984502D9ACF102002B44A3EB080318
:100BA800A4B2B3FBFEFC0EFB1C330CFB07F744EAB4
:100BB8000344A7424DD92C190CF1FF3304D2A742A4
:100BC80002D9ACF102032C44E41B43EA0040C0E71D
:100BD800C2F120039540944020FA03F12EFA03F362
:100BE8004FEA154E9040AFB20343B1FBFEFC0EFB3B
:100BF8001C10190C0CFB07F841EA0041884522D962
:100C080069180CF1FF3004D2884502D9ACF1020012
:100C18002944A1EB08019BB2B1FBFEFC0EFB1C11A1
:100C28000CFB07F743EA01439F420ED9EB180CF17E
:100C3800FF3104D29F4202D9ACF102012B44DB1BE5
:100C480041EA004193E76046E3E76146F7E760461B
:100C5800A4E76346B8E7834206D916B900210846D7
:100C68007CE7C6E900E0F9E7B3FA83F78FB9834276
:100C780001D3724508D8BEEB020460EB03030120E0
:100C88009C461EB9002169E73846FAE7C6E9004CD8
:100C9800F8E7C7F1200CBB400EFA07F522FA0CF46E
:100CA8002EFA0CF1BA401C4320FA0CF3B8404FEA74
:100CB800144901431FFA84FEB3FBF9F809FB183005
:100CC8000B0C08FB0EFA43EA00439A4540D9E31897
:100CD80008F1FF3004D29A4502D9A8F10200234452
:100CE800A3EB0A0389B2B3FBF9F809FB183308FB35
:100CF8000EFE41EA03418E452CD9611808F1FF33F5
:100D080004D28E4502D9A8F10203214443EA0040E7
:100D1800A1EB0E01A0FB02984145CE46434602D303
:100D280006D14D4504D20138B9EB020E68EB040335
:100D3800002EA7D0B5EB0E0261EB030101FA0CFC03
:100D480022FA07F3F9404CEA0303C6E9003199E7B0
:100D58004046C5E74346D9E72DE9F04F144697B01A
:100D68001D46476A8346239ECDE904457FB9102076
:100D780009F0C2FC0246CBF8240020B9A24BEA21B4
:100D8800A2480AF007FCC0E901770760C760DBF8F2
:100D98002430196859B15A680123584693404A606B
:100DA8008B600AF019F9DBF8243000221A602B1E38
:100DB800B7BF23F00043002301220593A8BF336087
:100DC800059F934BB8BF3260BB4319D142F20F73F2
:100DD800229A1360C7F31303234300F0E085249B92
:100DE80053B98C4B21E08C4B08930833249A136039
:100DF800089817B0BDE8F08F864B08930333F5E7E2
:100E0800DDE90423CDE90C23DDE90C0100220023F0
:100E1800FFF7C2FD804650B10123229A1360249B3C
:100E280013B17E4B249A13607D4B0893E0E714AB13
:100E3800C7F30A565846019315AB0093DDE90C2316
:100E48000AF050FB0390002E78D00D9BA6F2FF36D7
:100E5800CDF84C80C3F3130343F07F53DDE90C0155
:100E680043F44013194600226E4BFFF775F960A34F
:100E7800D3E90023FFF728FB5FA3D3E90023FFF79B
:100E88006DF904460D463046FFF7B4FA5CA3D3E982
:100E98000023FFF719FB02460B4620462946FFF7B9
:100EA8005DF904460D46FFF7BFFD00220746002303
:100EB80020462946FFF77AFD40B13846FFF79AFAEF
:100EC80022462B46FFF768FD00B9013F162F54D87C
:100ED800554B03EBC703DDE90C01D3E90023FFF70A
:100EE80065FD00284BD0013F00231293149B9B1BE8
:100EF8005A1E4CBFC3F1010300230A9245BF069353
:100F0800002306930A93002F3BDB0A9B0F973B4471
:100F18000A9300230B93209B092B00F28980052B51
:100F2800C5BF043B002401242093209B023B032BD4
:100F380000F28980DFE803F02D3A3859DDE91463BF
:100F48001E4406F23243202BC9BFC3F14003C3F14C
:100F580020039F4006F21243D8BF04FA03F006F1BB
:100F6800FF36C4BF24FA03F347EA0300FFF732FA57
:100F78000122A1F1F873139274E70123B5E71290E7
:100F8800B4E7069BDB1B06937B420B9300230F936E
:100F9800C1E700230E93219B002B57DC01239946C0
:100FA8001A46099321920CE00123F3E700230E93DC
:100FB800219BFB1803F1010909934B46012BB8BF8C
:100FC8000123DBF824000021042202F114059D42CC
:100FD80040D94160584609F0BFFF089000283CD12D
:100FE800124B02464FF4D571CAE60123DFE700BF72
:100FF80061436F63A787D23FB3C8608B288AC63F17
:10100800FB799F501344D33FE1140200F814020007
:101018000000F07FDD140200D4140200940B0200DB
:10102800930B02000000F83F00E300005215020095
:10103800012400230E9420934FF0FF330022994699
:1010480009931223AEE701230E93F5E7219B9946F6
:101058000993B6E701315200B7E7DBF82430B9F15C
:101068000E0F089A1A606FD8002C6DD0002F36DD4D
:1010780007F00F02A04BF80503EBC203D3E90034D5
:10108800CDE910344FEA271417D59C4B04F00F0410
:101098004FF00308D3E90823DDE90C01FFF73EFB15
:1010A800CDE90401954D5CB9DDE91023DDE90401C2
:1010B800FFF734FBCDE904012BE04FF00208F1E71C
:1010C800E10709D508F10108DDE91001D5E9002398
:1010D800FFF7FAF9CDE9100164100835E3E700F0ED
:1010E80007817C42844B854D4FF0020804F00F02C3
:1010F800241103EBC203DDE90C01D3E90023FFF758
:10110800E3F90023CDE90401002C40F0E580002B31
:10111800D0D1129BDDE90445002B00F04C81002260
:10112800774B20462946FFF741FC002800F0438111
:10113800B9F1000F00F03F81099B002B00F3E48018
:10114800DDE90C34CDE90434159B002B02DB0E2FAE
:1011580040F342820E9A002A40F067820B9C0025D9
:10116800DDF81880B8F1000F0DD00A9B002B0ADDBE
:101178004345069AA8BF4346D21AA8EB030806922D
:101188000A9AD31A0A930B9B0BB30E9B002B00F001
:10119800A682002C00F0A1822946224658460AF071
:1011A80045F8039A01460546584609F095FF039904
:1011B8000646584609F010FF0B9B1B1B0B9300F0CB
:1011C80091820B9A314658460AF030F80390012173
:1011D800584609F06BFF0F9B0446002B00F08482F1
:1011E8001A46014658460AF021F8209B0446012B6E
:1011F80003DC049B002B00F07C820026236904EBAF
:10120800830318690CF079FCC0F120000F960A9B43
:10121800184410F01F0000F09182C0F12003042B45
:1012280040F38182C0F11C00069B0344804406936E
:101238000A9B03440A93069B002B05DD1A46039973
:1012480058460AF04DF803900A9B002B05DD21460D
:101258001A4658460AF044F80446129B002B00F040
:101268007682214603980CF097FC002880F26F8262
:1012780000230A220399584609F0D0FE0E9B7E1ED1
:101288000390002B00F05C82002329460A2258466E
:1012980009F0C4FE099B0546002B03DC209B022BAA
:1012A80000F35E82B8F1000F05DD29464246584634
:1012B8000AF016F805460F9B002B00F0D0826968EB
:1012C800584609F049FE0746002840F07F820D4B3A
:1012D800024640F2EA2153E5E20706D508F1010883
:1012E800D5E90023FFF7F0F80123641008350BE770
:1012F8004FF002080DE700BF00E30000D8E200004D
:101308000000F03F5215020020460022AC4B29464F
:10131800FFF7DAF87E1E08F10108099CCDE90401FF
:101328004046FFF767F8DDE90423FFF7CDF8A54B42
:101338000022FEF713FFA1F15073CDE910011193BC
:10134800002C3BD10022A04BDDE90401FEF704FF8D
:1013580002460B46CDE90423DDE91023FFF744FBE1
:10136800002840F05781DDE9102101F10043DDE953
:101378000401FFF71BFB00283FF4E2AE00242546DA
:10138800219BDDF820A0DE434FF000082146584697
:1013980009F022FE002D00F0A980B8F1000F05D059
:1013A800A84503D04146584609F016FE2946584636
:1013B80009F012FE9AE03E464C46B1E7834B03EB38
:1013C800C40353E90201089B1C440E9B002B4AD01E
:1013D80002460B4600207E49FFF7A0F9DDE91023FD
:1013E800FEF7BAFEDDF820A0CDE91001DDE9040121
:1013F800FFF71AFB0546FEF7FDFF024630350B46A0
:10140800DDE90401FEF7A8FE0AF8015B02460B4677
:10141800CDE90401DDE91001FFF7E6FA002865D1FE
:1014280000206C49DDE90423FEF796FE02460B46D0
:10143800DDE91001FFF7D8FA002840F00D81A24538
:1014480000F0EA8000225E4BDDE91001FFF73CF86E
:1014580000225B4BCDE91001DDE90401FFF734F808
:10146800CDE90401C2E7DDE91023FFF72DF8A04616
:10147800DDF820A0CDE91001DDE90401FFF7D4FA79
:101488000546FEF7B7FF024630350B46DDE9040195
:10149800FEF762FE0AF8015B02460B46A245CDE95B
:1014A80004234FF0000223D1494BDDE91001FEF778
:1014B80055FE02460B46DDE90401FFF795FA0028C0
:1014C80040F0CA8000204249DDE91023FEF744FEBF
:1014D80002460B46DDE90401FFF768FA70B1C2461F
:1014E80008F1FF381AF8013C302BF8D0374655E0A0
:1014F800334BFEF7E9FFCDE90401BDE7DDE90C3424
:10150800CDE90434159B002BFFF628AE0E2F3FF7CC
:1015180025AE2E4B03EBC703D3E90034CDE90634DF
:10152800219B002B02DAB9F1000F64D0DDF820A06E
:10153800DDE90445DDE9062320462946FFF7EEF8F4
:10154800FFF772FA0646FEF755FFDDE90623FEF7B8
:10155800BBFF0246204606F130040B462946FEF73B
:10156800FBFD0AF8014B089C02460B46AAEB040453
:10157800A14540F08280FEF7F1FD04460D46DDE905
:101588000623FFF731FA002865D120462946DDE910
:101598000623FFF701FA08B1F3075CD4039958460C
:1015A80009F01AFD002301378AF80030229B1F60DA
:1015B800249B002B3FF41CACC3F800A018E400BF28
:1015C8000000244000001C400000144000E300001C
:1015D8000000E03F0000F03FA24B03EBC703D3E954
:1015E8000034CDE90634219B002B9FDAB9F1000FB6
:1015F8009CDC7FF4C3AE00229B4BDDE90601FEF7BD
:1016080063FFDDE90423FFF7E5F9044600287FF4CA
:10161800B5AE3E462546B4E0DDE90C34CDE90434E8
:10162800159B002B01DB0E2FD6DD209A012A36DC14
:10163800139A82B303F233430B9CDDF81880069AA1
:10164800012158461A4406920A9A1A440A9209F045
:101658002DFD054686E53E4653469A4613F8012D6C
:10166800392A06D1089A9A42F7D1302208990136C8
:101678000A701A7801321A7038E700227B4BFEF79D
:1016880023FF0022002304460D46FFF785F90028B2
:101698003FF450AF82E7149BC3F13603CCE709F15E
:1016A800FF340B9BA34208DBB9F1000FA3EB040442
:1016B8000EDBDDF818804B46C1E70B9B0F9AE31A47
:1016C8000B94DDF8188000241A444B460F92B6E7B5
:1016D800069BA3EB09080023B1E7039E71E50B9A6B
:1016E800039970E5039672E5209B012B17DC049B98
:1016F800ABB9059BC3F313039BB9059B23F00046C5
:10170800360D360536B1069B0126013306930A9B32
:1017180001330A930F9B002B7FF470AD0F960120C5
:1017280075E50026F6E73FF486AD1C33069A1A44A1
:10173800984406920A9A1A440A927CE50346F4E70A
:10174800099B002B2BDC209B022B09DC27E0B9F13D
:10175800000F1DDC209B022B1ADD3E46CDF824909D
:10176800099B002B7FF40CAE21460522584609F050
:1017780055FC0146044603980CF00EFA00287FF742
:10178800FFADDDF820A0312301360AF8013BFBE567
:101798000E9B3E46CDF82490002B7FF483AD089F26
:1017A800214603980CF00EF9089B00F13009099ABC
:1017B80007F8019BFB1A9A4240F3CB8000230A22C8
:1017C8000399584609F02AFC0390E9E72A6905F1CC
:1017D8000C010C30023292000BF0A7FF01223946AF
:1017E800584609F07DFD089BA846054603F1010A05
:1017F800DDE9082313440A93049B03F001030B93C8
:101808000AF1FF332146039806930CF0DBF84146B2
:10181800099000F1300903980CF0BEF92A462146D8
:101828000746584609F0C8FDC268014602B3584643
:1018380009F0D2FB002F3ADA01220399584609F041
:101848004FFD214603900CF0A7F9002803DC29D1AD
:1018580019F0010F26D0B9F1390F1DD132E0284611
:10186800C1E700BF00E3000000001440000024406E
:101878000E9003980CF090F90E990C90584609F0C8
:10188800ABFB0C9A5ABB209B53B90B9B43B9B9F1DC
:10189800390F17D0002F05DD099B03F1310901E04D
:1018A800002F2ADADDF818A00AF8019B6EE5209BC4
:1018B8003B4304D1049B03F00103002BBCD0B9F1D6
:1018C800390F36D1069F392307F8013BBA46013F45
:1018D8001AF8013C392B5AD001333B7056E5002FDA
:1018E80006DB209B3B4306D1049B03F0010313B99D
:1018F800002AA1DCD6E7002AE1DC0A9B57460AF851
:10190800019C53452ED000230A220399584609F01A
:1019180085FBA84503904FF000034FF00A024146AB
:1019280058460BD109F07AFB804605460AF1010AB0
:1019380066E7DDF818A009F10109B5E709F06EFBC3
:101948002946804600230A22584609F067FB0546C7
:10195800ECE7099B4FF00008002BCCBF1F4601277E
:10196800089B1F4401220399584609F0B9FC2146F7
:1019780003900CF011F90028A8DC02D119F0010F2E
:10198800A4D1BA4617F8013D302BFAD0FEE4089BE3
:10199800BB429BD13123089A01361370F6E4249B8D
:1019A800002B7FF420AA014BFFF73FBAD4140200A2
:1019B8004FF0FF3330B5094C0144884201D1D84378
:1019C80030BD10F8012B5340082203F001055B08D5
:1019D80005B16340013AF8D1EFE700BF2083B8EDC5
:1019E8002DE9F04FADF5805D83B0814602AF03214C
:1019F800634A64480AF0A1F96C468AB002AA624BAD
:101A08004AF64441536102231020C2E906135F4B92
:101A1800C2E90803062342F8103F00234FF443515C
:101A2800584802F047F81225A546594C594A23460A
:101A38000321544800950AF078F9574B2146574836
:101A4800C7E90034BD60FFF7B3FF4FF47F62FF21A1
:101A5800F86007F110000BF08FFE0321504A494847
:101A68000AF06BF94FF47F2148460AF068F90446FA
:101A780060B103464B4A012142480AF05CF920460E
:101A880007F580570437BD46BDE8F08F4FF4805303
:101A98003A464FF47F2148460AF041F9044610B10E
:101AA8000346414AE7E70321404A36480AF045F928
:101AB8004FF480182646DFF8E4B0DFF8F4A040F6CB
:101AC800F873A6EB4625ED0005F5893505F589750A
:101AD8009D4228BF1D4658462946FFF769FF044620
:101AE8004FF48052FF2132480BF046FE2A465946F1
:101AF8003048CAF80440AAF80060AAF802500BF06F
:101B080014FE414648460AF01AF90446A0B16D464B
:101B18008AB002AA284BC2E905360523C2E9078420
:101B280042F8103F00234FF42151164801F0C2FF3C
:101B38003346AD46214A9EE74FF48053524641460C
:101B480048460AF0ECF8044620B16D468AB002AA6D
:101B58001B4BE0E7334603211A4A0A48009508F56B
:101B680080580AF0E2F8B8F5891F06F101060BF66D
:101B7800F87BA4D10321144A02480AF0DEF87EE774
:101B8800CCE7000074E20000E4E700006E230700E1
:101B9800121301001EE8000045564157F5F00000F9
:101BA80045E8000059E800007DE800009AE80000D8
:101BB8006C66002074660020ACE800002DE9000087
:101BC800D8E8000004E9000046E900002DE9F04FDC
:101BD800ADF5805D87B002AF0321654AB8606548FE
:101BE8000AF0ABF84FF480534FF47F21624807F1B5
:101BF80010020AF08EF8054630B1034601215F4A0B
:101C08005C480AF098F80AE03B695D4A93420DD0B7
:101C180001215C4A57480AF08EF84FF0FF352846F4
:101C280007F580571437BD46BDE8F08FBA687B6961
:101C38001268934207D900931346534A01214D482D
:101C48000AF073F8E9E7BA690321009249484F4A54
:101C58000AF06BF8A8462E464FF4801ADFF830B128
:101C6800BB69984509D331464A48FFF7A1FEFB698D
:101C7800984277D0484A0090E0E77B695146A3EB49
:101C8800060940F6F873994528BF9946414B404AE2
:101C9800F318FB6038484FF480530AF03AF80446CA
:101CA80080B10090534601213C4A32480AF03DF881
:101CB800002C4EDA43460121394A2E480AF03BF8F7
:101CC8002546ACE7BBF800101FFA88F08142BBF844
:101CD8000220DBF8043009D00346324A0091012182
:101CE80024480AF022F84FF0FF34E3E7914504D284
:101CF8001346CDF800902C4AF1E72C49F868C7E95B
:101D080000320BF012FD7A68F8681146FFF750FEB2
:101D18003B687A6883421FFA88F112D06D468AB010
:101D280002AAC2E907300523214EC2E9056142F83B
:101D3800103F4FF4215123460E4801F0BBFEAD463B
:101D4800D1E714460B46009203211A4A094809F0C4
:101D5800ECFF7B6926449E420AF5805A83D208F13B
:101D680001087DE7BB6803211E60134A334647E735
:101D780066E9000074E20000B0DF00007CE90000C2
:101D88004556415798E90000B5E90000D6E900003A
:101D98006C6600206C460020D9EA0000FCE90000CF
:101DA800C1EA000024EA00004EEA00007466002040
:101DB8006CEA00009BEA000004EB00002DE9F04FFC
:101DC8004FF000098DB0039205460E465A4A03218A
:101DD8005A4809F0B2FF4F46DFF860B10DF110081C
:101DE8004FF0FF324FF0FF33554808EB870107F0FB
:101DF8007DFB041E15DA3B460121524A4F480094E8
:101E080009F093FF00254E4E58F8041B11B13046D7
:101E18000BF0DDFA0135082DF6D120460DB0BDE8EE
:101E2800F08F039BF28AA3F12C04738C0321DB0847
:101E38005343B4FBF3F4B4F5807F28BF4FF48074A8
:101E4800414A2346584658F827A009F074FF738C76
:101E5800F28A102B30D1022A1DD15046A20006F179
:101E68002C010BF062FC09EB4409B9F5805F02D242
:101E78000137082FB2D1AB684FF480622846DB687F
:101E880004999847041E23DA2346304A01212B4837
:101E980009F051FFB6E7012A0ED1002306F12A0204
:101EA8000AF102009C42DED032F9021F2AF8231000
:101EB80020F823100133F5E7584600920221244AFE
:101EC80009F033FF00215046A2000BF055FCCAE789
:101ED800AB680022012128461B699847041E02DAD4
:101EE80023461C4AD2E746460124AB684FF4806279
:101EF8002846DB6856F8041F9847002811DA009036
:101F080023460121144A0D4809F00FFFAB6802224D
:101F1800012128461B699847041E06DA23460F4A02
:101F2800B4E70134082CE0D1F0E703210C4A034858
:101F380009F003FF66E700BF29EB000074E2000028
:101F48003009002045EB000068EB0000B7EB00000B
:101F58008AEB0000DBEB000000EC000021EC000045
:101F680046EC00002DE9F34104460321234A2448A6
:101F780009F0E3FE0321234A214809F0DEFE03218C
:101F8800214B224A1E4809F0D6FE12230321204A7B
:101F98001B4809F0D0FE2046FFF722FD044640B159
:101FA800034601211B4A164802B0BDE8F04109F07A
:101FB800C2BE0321184A124809F0BFFEDFF8488064
:101FC800164F0F4EA8EB0405B5F5005F28BF4FF478
:101FD800005523463A4603213046009509F0A5FEF0
:101FE8000F4B2C449C42EDD903210E4A044809F0BA
:101FF800A4FE0321044B0C4AD5E700BF6CEC00009B
:1020080074E2000082EC000012130100A2EC000050
:1020180033E80000BAEC0000D5EC0000F5EC000055
:10202800111301001CED00004CED00002DE9F04FEC
:102038000446564B87B0032102AF554A5548BB604A
:1020480009F07BFE0321544A524809F076FE4FF40A
:102058007F21204609F073FE0346F8B103214F4A59
:102068004C4809F068FE03214D4A4A4809F065FECC
:10207800042303214B4A474809F05DFE04234FF42B
:102088007F21204607F1080209F049FE034660B3A4
:10209800454A03213F4809F04EFE1CE00423F8603E
:1020A8004FF47F21204607F10C0209F032FE034667
:1020B80008B13E4AEDE704223D4807F10C010BF058
:1020C80024FB60B1FB68032100933A4A4FF47F2355
:1020D800304809F02AFE1437BD46BDE8F08F0321C9
:1020E800354A2C4809F029FEBDE707F10C05042301
:1020F800F8602A464FF47F21204609F00AFE03467D
:102108000028D6D10422294607F108000BF0FDFA71
:1021180028B90321294A1F4809F00FFEDBE70321EC
:10212800274A1C4809F009FEA8460526DFF89490BE
:10213800DFF894A0DFF894B007F10804013ECAD094
:10214800A8EB050314F8010B18F8011BC7F804D015
:102158008CB0884214BFCC46D44603F57F2302AA2C
:10216800C2E905B340F203531385194BC2E90701CD
:10217800C2F824C042F8103F00234FF453510548D9
:1021880001F098FCD7F804D0D8E700BF55AA6699A3
:1021980084ED000074E20000A3ED0000B9ED00003A
:1021A8002CEE000042EE000061EE0000D1ED0000D0
:1021B800E3F00000E8ED000014EE000079EE000006
:1021C800A1EE00007BED000075ED0000CAEE0000F6
:1021D800060000012DE9F04186B000AF5A4C2046B8
:1021E8000BF09DF80346B8B921686C4688B06A467A
:1021F8005648C2E905014FF400719183544942F8E9
:10220800101F4FF4E651534801F054FCA546002036
:102218001837BD46BDE8F0816D4688B06A46236828
:102228004D49C2E905134FF400739383484B42F8B4
:10223800103F00234FF4E651464801F03BFC0321D0
:10224800AD46464A434809F078FD2046FFF7EEFEC2
:102258002046FFF787FE0321414A3E4809F06DFDFD
:10226800404E30460BF05BF848B901213E4A3948E8
:1022780009F063FD6FF0120423463C4A4AE04FF42C
:1022880080604FF4FA634AF64448C7E904034FF400
:102298000473C7E90138364BFB60B3680121304647
:1022A8001B683A1D9847041E06DA23460121314A65
:1022B800284809F040FDDFE78AB06A462E4B022124
:1022C800C2E905381023C2E90713052342F8103F75
:1022D80000234FF423511F4801F0ECFB4FF4005347
:1022E800AD467B60381DFFF771FC0346B8B9032182
:1022F800224A184809F021FD30467A682049FFF73C
:102308005DFD034628B91F4A0321124809F015FD4F
:102318007DE71D4A01210F4809F00DFD77E70121EE
:102328001A4A0C4809F007FD0321194A094809F01F
:1023380004FD3046174A1849FFF740FD034608B91F
:10234800164AE1E7164AE5E7B0DF0000E8EE0000CC
:102358000300000174E20000FFEE000016EF000029
:1023680032EF0000D8DF000053EF0000C5F0000096
:102378003009002068EF00008BEF0000B8EF000084
:102388006C460020DFEF00000BF0000025F0000095
:102398004CF0000012130100F5F0000072F000008C
:1023A800A2F000002DE9F04F91B0009302F0040371
:1023B8000293C2F3C2030133840705460E46DDF8D3
:1023C80068900392059340F0BB81041D30B1072942
:1023D80009D86FF01B0011B0BDE8F08F01F00706B7
:1023E800341DC6F10806009B4FF000084FF0040AA0
:1023F800591E4FF0FF3347460193C3465346CDF865
:1024080010800DB1009A22600598002800F3E8803A
:102418009848009A824203D397488242C0F0E080ED
:10242800039AA4EB050E92074FEA9E0000F1038180
:102438000F2F00F2B180002D00F0058107F1400256
:102448000DEB020C019A0CF8200C0CF8102C0498D7
:1024580001300490E7E07A285DD84B280ED8472849
:1024680059D829282DD8252852D054D820287AD0B0
:102478002338D0F1000B4BEB000B74E04C382E28BE
:1024880049D8DFE800F07048484848484848484874
:1024980048484B484848484848484859484B4B5989
:1024A8005959704B6D487048184B184848827F4BF3
:1024B80048484B487F0000204FF0000B4FF0040ABB
:1024C80038E001222A38C0B202FA00F010EA0E0FF2
:1024D80049D110F0625C2FD110EA020B43D060465C
:1024E800013C5444B4FBFAF40AFB04F4002D61D017
:1024F800A3EB050CA444B4453FF66BAF002868D1A4
:10250800042B47D159F8043B2360042304342AE000
:10251800019A013A01924FF0000B24E011F8010CE6
:102528006C2834D1002011F8023C83466C2BC5D1AD
:102538004FF0080A5346D3E709F1070929F00709BC
:10254800073424F00704F9E802AB35B106982044B3
:10255800B0423FF63EAFC4E900AB4FF0000B083481
:102568004FF0080A534611F8010F002878D0BBF144
:10257800000F7FF470AF2528F5D14FF0010B019BB8
:10258800013301934FF0040AECE7584694E7002022
:102598008346A5E7082B02D06FF015001BE709F169
:1025A800070929F00709F9E80223C4E900230823E9
:1025B8000834D8E768B9042B02D109F10409A4E763
:1025C800082BE9D109F1070929F0070909F10809D8
:1025D800EDE7059A013A059259F8042B009210E7A5
:1025E800039A900720D54FF0010CA4EB050E4FEA93
:1025F8009E00BEF5007FCFD20F2FCDD8F5B107F1E1
:1026080040020DEB020E019AC0B20EF8200C0EF833
:10261800102CBCF1000F3FF41AAF60F07F000EF8E9
:10262800200C08F101080137C5F108024FF6DA7EDF
:102638000434069297E74FF0000CDAE7BCF1000F7C
:1026480001D00136EFE7029802360028EBD1009856
:10265800CDE90631FEF72AFADDE906310644E2E75C
:10266800631BB3F5806F97D245B9A6F10804E0184B
:10267800B1E600BFC0DE000014160200029A9B08F3
:1026880028602B709DF81030C2B1EB7085F802807D
:10269800B8F1000F05D0002208A8C5F1010C974237
:1026A8000ED14FF0000AC5F101030DF12009019385
:1026B8000DF1300B574512D1601B8CE66B70E5E7C6
:1026C80010F8013B190608D504EB0C0EB64503F0CB
:1026D8007F033FF67EAE04F8013B0132DFE7B8F135
:1026E800000F03D099F90020002A17DB029BD3B111
:1026F8001AF80B2004F8012B0022019B981820449B
:10270800B0423FF666AE99F80000009904F8010B54
:10271800204603920BF009F8039A14440AF1010ABF
:1027280009F10109C6E799F8002055F8223000930D
:10273800029B009845F82230FEF7B8F9421CDCE706
:102748006FF00D0047E600BF2DE9F04F97B000AFDE
:10275800D7F880B03B62CBF3C0030446894690F8B3
:1027680002A0FA62BB6141B9457800780AEB8000A3
:1027780020444D4517D8A0EB0409E378FB61BAF172
:10278800000F02D01BF0010F16D1FB6953BBFB6A87
:102798001BB1494620463A6A98474D4628465C3759
:1027A800BD46BDE8F08F461C3046FEF77FF9013084
:1027B800304409F10109DCE7626823787A62FA6A31
:1027C8009900796104EB8301002A40F001810E46EB
:1027D8004FF000084D4601EB0A094E454CD101EB7C
:1027E8000A0610E01BF0020FD1D023789A007A6114
:1027F800626804EB83017A62FA6A002A77D14D464F
:10280800904601EB0A061BF0050F0CBF02230123BB
:10281800FB62FB6906EB430A0BF00203BB625645F9
:10282800BCD016F8021B16F8013C54F82390AF4BA5
:10283800994502D3AE4B994536D3BB69002B40D09E
:10284800786A09F096FB00283BD0E9468AB06A46C8
:10285800A84B53617B6AC2E906314FF400731384B5
:10286800A54B42F8103F00234FF41251A34801F042
:1028780021F9023DCD46D2E716F8013BF96254F83A
:102888002300FEF713F9D7F88430F96A01304BB109
:10289800D7F8883098453EBFD7F8843023F8180019
:1028A80008F10108054498E7BB6923B1786A09F083
:1028B80060FB0028C9D11BF0010F05D1FB6AED1A96
:1028C800ADE7BB6A002BAAD04846FEF7EFF8D7F869
:1028D800843053B1D7F8883098453FBFD7F8842063
:1028E800431C22F8183008F10108054497E7BAF1AB
:1028F800000F73D01BF0040673D0D046002607F1F2
:10290800480052463B61B9620AF00FFFB96A3B6959
:1029180001EB0A02BA62FA69F9695200FA60BA6A06
:1029280002EB41023A610BF00202BA603A69B96AF5
:102938008A4258D162781BF0020F18BF00217A62D0
:1029480008BF4FEA5801B2181BF0010FD2B240F08D
:102958009F801BF0040F14BF40460020BB616270CB
:10296800A070E17020463A6A7969FB6A9847051EAB
:10297800FFF614AFBB69414623707B6A3A6A6370FD
:10298800FB6984F802A0E37007F14800FB6A9847E6
:10299800B0F10008C0F2B4807B69A9EB0A01C91A3A
:1029A800FB683A6AC91AD7E90A0398470028C0F2AF
:1029B800A9804FF0000BA84408EB000507F1380A7E
:1029C800B34567D300213A6A0846FB6A9847E5E6AB
:1029D80056464FF0000807F1380092E75646D046B1
:1029E80096E7B04694E7BA6A12F8021B12F8015C3F
:1029F800BA6254F825003D4A904202D33C4A9042BC
:102A08001ED3BA6932B1786A7B6009F0B2FA7B6882
:102A180000288BD1BA6802BB08F1280207F1300CF4
:102A280008F10100944407F1580208F1020852FA2B
:102A380080F00CF8101C5FFA88F800F8105C75E755
:102A4800BA693AB1786A7B6009F093FA7B68002822
:102A58007FF46CAF1BF0010F09D006F1280207F1D3
:102A68003000711C161806F8205CCEB25EE71BF029
:102A7800040F3FF45BAF08F1280207F1300008F1BA
:102A8800010102EB000808F8105C5FFA81F84DE7D5
:102A9800002063E71BF80A3054F8239087F8373092
:102AA800D7F88430FBB133F81B8001213A6AFB6AFE
:102AB80007F137009847002824DB0544B8F1000FD8
:102AC80006D14846FDF7F2FF00F101081FFA88F821
:102AD800414648463A6AFB6A9847002812DB054493
:102AE8000BF1010B6CE7D7F88480DEE7C0DE00004D
:102AF80014160200070402000400000114E200009A
:102B080045464BE6054649E6014B1860704700BF4D
:102B1800C004002030B5002587B0CDE90301044684
:102B2800009503A90548059500F06EF8DDE9043025
:102B38009842B8BF255407B030BD00BFC9BF0000D8
:102B4800F0B5024601680A270020074E0B461C789C
:102B58000131355D6D0701D41360F0BD07FB0043FB
:102B6800A3F13000F2E700BFA61302002DE9F84FE9
:102B780015469A46D378234A6F2B12F803B081463C
:102B88000F460BF0030B2BD026D8582B0CBF102662
:102B98000A26DDF828803246002348463946FDF7E4
:102BA8006BFF092A08F1FF38D4B21ED83034B1457A
:102BB800E4B277F1000788F8004001D3D04511D876
:102BC8002B789B0605D5082E15D1AB7843F0080362
:102BD800AB704046BDE8F88F03F0F703702BD5E7DC
:102BE8000826D6E781460F46D5E7BBF1010F0CBF93
:102BF80037345734DBE7102EEBD1AB7843F01003B2
:102C0800E6E700BFA61302002DE9F04F8A461646F4
:102C18001C46002597B00390307808B9284655E33C
:102C280025280AD05146039B98470028C0F24E83B6
:102C3800731C01350493049EEEE71822002110A8A6
:102C48000AF09AFD7378252B00F0A380002398469C
:102C58009E469C461846711C0F4611F8012B2B2ADC
:102C680000F0C68000F2BD80202A00F0C480232A2C
:102C780000F0C4802BB19DF8483043F040038DF834
:102C88004830B8F1000F05D09DF8483043F02003D4
:102C98008DF84830BEF1000F05D09DF8483043F05C
:102CA80010038DF84830BCF1000F05D09DF848306E
:102CB80043F008038DF8483028B19DF8483043F0B8
:102CC80004038DF848309DF8483003F04401442946
:102CD80003D16FF386138DF848309DF848302A2ABF
:102CE80043F0800309978DF8483040F08C809DF8B8
:102CF800493043F001038DF849307B1C1A782E2A9D
:102D08000CBF012100219DF8492061F341028DF893
:102D180049200CD15A1C09925A782A2A40F08380FB
:102D28009DF84920023342F004028DF849201A78B0
:102D38006C2A00F0A48000F28680682A00F08C805B
:102D48006A2A00F0A5804C2A00F0AA801A4612F8D8
:102D5800013B782B04928DF84B309DF8492000F206
:102D680017816D2B00F2A980692B00F21181572B76
:102D780000F2BE80412B03D0453B022B00F20881B4
:102D880004229DF84A3062F302038DF84A30012389
:102D9800CAE08DF84B30B31C04939DF84930D9072D
:102DA80040F1FD8054F8048BB8F1000F07DA9DF864
:102DB8004820C8F1000842F004028DF848205A075C
:102DC80040F1F68054F804BBBBF1000F80F2F580A7
:102DD8009DF849306FF341038DF849304FF0FF3BC0
:102DE800EBE02D2A0DD0302A7FF444AF012333E7DE
:102DF8004FF0010C30E74FF0010E2DE74FF00108BE
:102E08002AE7012028E709A8FFF79AFE099BBB4299
:102E18003FF474AF9DF848201390C00F60F341024F
:102E28008DF848206AE709A8FFF78AFE9DF8483020
:102E38001490C3F3400242EAD07262F341038DF862
:102E48004830099B73E7742A26D07A2A7FF47EAF2C
:102E580006219DF849200CE05A78682A9DF84920F7
:102E680006D1012161F3C6028DF8492002336DE7CE
:102E7800022161F3C6028DF84920013366E75A78CA
:102E88006C2A9DF8492001D10421EBE70321F0E7E2
:102E980005219DF84920ECE707219DF84920E8E73E
:102EA800BDF8482022F4F04222F0020242F48042A7
:102EB80042F00202ADF84820DFE76E3BD9B20123A9
:102EC8008B4040F282410B4238D113F0240F52D18B
:102ED800DF075DD503219DF84A3061F302038DF8C1
:102EE8004A3002F07803A3F14000434243411BE01B
:102EF8000120A3F15801C9B200FA01F111F4624F9F
:102F08007FF43EAF40F6010739421DD111F4043F6A
:102F18003ED09DF84A3060F3020302F07802402A5E
:102F28008DF84A3034D000239DF84820C2F3400180
:102F38000B4363F341028DF848202EE702219DF8E8
:102F48004A3061F30203E8E702209DF84A1002F0D4
:102F5800780260F30201402A8DF84A1002BF9DF8FA
:102F6800481041F001018DF84810632BDBD1131E86
:102F780018BF0123D8E703219DF84A3012F0780FD3
:102F880061F302038DF84A3014BF01230023CBE715
:102F98009DF8483043F001038DF84830C3E79DF9A8
:102FA8004820002AACBF4FF0FF38DDF84C8006E718
:102FB8009F077FF513AFDDF850B00023CDE9133339
:102FC8009DF84A309DF8491003F00703012BC1F31F
:102FD800C30132D1CB1E042B04D8DFE803F020450F
:102FE80045202000236801294FEAE372CDE9103219
:102FF8001BD19DF94030DA17CDE9103204349DF821
:10300800483013F003074FD032465146049B0398CB
:1030180009F00CF80028C0F2598105440BE654F871
:10302800043BDA17CDE91032E9E70229E6D11AB2F2
:1030380043F3C033CDE91023E0E7022B24D1CB1EA4
:10304800042B04D8DFE803F0181010181800012921
:103058004FF0000254F8043B14D00229CDE9103295
:10306800CDD19BB21093CAE7073424F00704F4E8E3
:103078000223CDE91023C2E754F8043B1093002340
:103088001193BCE7DBB2CDE7042B08D1073424F059
:103098000704D4E900230834CDE91023AFE7032B54
:1030A800ADD154F8043BDDE79DF84B0078283FF696
:1030B800C2AD62281ED8252850D058287FF4BBAD51
:1030C800DDE910010DF13E03009312AA0AABFFF7E8
:1030D8004DFDBBF1000F814680F2C180B9F1000FB0
:1030E8003FF4A9AD0DF13E06A6EB0903002F7BD0F6
:1030F800013379E0633815283FF69DAD01A252F8F7
:1031080020F000BFDF3100003D3200003F2C0000FE
:103118003F2C00003F2C00003F2C00003D320000F7
:103128003F2C00003F2C00003F2C00003F2C0000EB
:1031380089320000613200009D3100003F2C000000
:103148003F2C0000753100003F2C00006132000068
:103158003F2C00003F2C0000613200005146039BC9
:1031680098470028C0F2B280013564E5BBF1000F32
:10317800DDF840900ADB594648460AF017FCB9F1D9
:10318800000F3FF458AD09EB000620E04846FDF774
:103198008DFCF8E71098002800F086800DF13E06B7
:1031A8000AAB0021009612AAFFF7E0FCBDF84A30EE
:1031B800BBF1000F03F0EF0343F4F04343F01003B7
:1031C8008146ADF84A3049DA00283FF434AD00278B
:1031D800A6EB090308E0109B00278DF8283001238F
:1031E8000DF129060DF128099DF84A1011F0100279
:1031F80006925FD00233139A134405924A0644BFDD
:1032080014995B18B8F1000F6DDDA8EB03089DF861
:1032180048305807C3F3800B65D4590659D53FB1D8
:1032280051463846039B984700284FDB5F460135D7
:1032380030234FE01E075ABFC3F300135F012B274B
:10324800DDE91023002BBFF63BAF524263EB43038B
:103258002D27CDE9102333E7002731E700279DF814
:1032680048100DF13E03A3EB09036FF386119B454C
:103278008DF848107FF632AFABEB030313932DE7BD
:10328800109B07293FF6D7ACDFE801F00C04060CC9
:1032980008080C0C1D70CEE41D80CCE4EA17C3E9C5
:1032A8000052C8E41D60C6E4304E07460523A6F167
:1032B800050999E7080748BF01339CE718460793B3
:1032C8005146039B98470028079B04DA17B0BDE8CE
:1032D800F08F2023C346594600290BF1FF3BEDDC54
:1032E8004544D8466D1A37B151463846039B98472E
:1032F8000028EBDB01359DF84A30DA0601D41B07BC
:1033080006D551463020039B98470028DEDB01355F
:10331800069B3BB151469DF84B00039B98470028FC
:10332800D4DB0135059F2F4406E051463020039B2E
:1033380098470028CADB01357B1B002BF5DC334698
:103348004A465146039808F071FE0028BEDB054442
:10335800A844A8EB0503002B7FF76DAC514620204D
:10336800039B98470028B1DB0135F2E7C00402004F
:103378002DE9F047058B04462807904611D4022909
:1033880005F0070540F0CC80204609F0C6F878B172
:103398000138218B042811D8DFE800F0C2106D85B0
:1033A800950001290CBF45F0100545F0200525833F
:1033B80088F31188BFF36F8FBDE8F08701F0070A23
:1033C800AA4500F0A5800027B9463E46A368002B11
:1033D80000F0BC8041F00801218388F31188BFF315
:1033E8006F8FA168002900F0BA800D68002900F0ED
:1033F800B680334652462046D1F80480C047002D97
:1034080076D02B6829461D46F0E701F007035A1FBE
:10341800012A1BD8002221F00701062B276889B250
:10342800C4E9002209D13B4603E0628B0132628382
:103438001B68002BF9D141F002012046218309F0D5
:103448006CF800287AD041F0200176E0042B0AD1EC
:1034580021F0070189B22046218309F05EF810B1F6
:1034680041F020012183218B01F0070AAA454FD0A2
:103478000027B946AAE7236921F0070141F00601B0
:10348800062DD3F8009021832DD1B9F1000F3FD03C
:1034980041F00801218388F31188BFF36F8F20461C
:1034A8003949C84729E021F00701236941F004019F
:1034B80089B2042DD3F804902183E6D000274FF079
:1034C800040A3E4682E721F00701236941F005011D
:1034D80089B2052DD3F808902183D6D000274FF064
:1034E800050A3E4672E700274FF0060A3E466DE79A
:1034F8002B4687E7B9F1000FD1D1EFF311882023CC
:1035080083F31288BFF36F8F238B23F00803238381
:10351800258BEA062ED525F01003238305F0070531
:103528006669218B002EBFF670AF00232768C4E9B7
:10353800003321F0070141F001012183218B4FF075
:10354800000901F0070AAA457FF440AF002F9CD07C
:1035580041F00801218388F31188BFF36F8F002F92
:10356800C8D03D68394633465246204609F001F82E
:103578002F46F4E7AB067FF51BAF25F02003238326
:1035880005F0070500E700BFA7C500002DE9F047D3
:10359800044607464FF00109DFF8508014B9384651
:1035A800BDE8F08794FAA4F5B5FA85F509FA05F3AC
:1035B8002E0108EB05156FEA030A24EA03042B7BA6
:1035C800002BEBD058F806301B694BB9464473689A
:1035D80004222846196807EA0A0700F057FADDE7C7
:1035E800284698470028D9D1F0E700BF84E20000B8
:1035F80030B5002289B00F490F480AF056F800226A
:1036080000230024CDE906230E230C4DCDE9033415
:103618004FF440722846CDE90144094B094900940A
:1036280006F068F90849284609F031FF204609B034
:1036380030BD00BF55360000883A0020002A00201F
:103648004139000088760020C1040200014806F0D4
:10365800D7B800BFEC0900202DE9F04780461F4885
:103668000F4609F06AF80646002830D0002528469B
:10367800BDE8F087237B6BB12368DB680BB120467C
:10368800984723681B69D3B96368042220461968E0
:1036980000F0FCF9013610344C45EBD3B8F1000FBB
:1036A800E5D0002DE2D02846FFF770FF0546002F31
:1036B800F7D000214FF4A47006F0CCFBF1E72046C8
:1036C80098470028E0D00AFA06F31D43E2E70546CA
:1036D8004FF0010A024CDFF80C90DDE7A03C002017
:1036E80084E2000094E20000014B53F82000704788
:1036F800DCE3000008B5034608462BB1044A136012
:1037080000F072FC002008BD6FF01500FBE700BF59
:10371800C404002010B5044C237813B9034806F0FC
:103728006FF80123237010BD6C760020EC0900208F
:1037380010B50446094809F000F83CB1084BD3E835
:10374800EF1F0139C3E8E21F002AF8D1054809F044
:10375800B8FFBDE81040044806F052B8983C002075
:103768009C3C0020883A0020EC09002000200146FB
:10377800034BD3E8EF0FC3E8E21F002AF9D17047E3
:10378800983C002070B5FFF7F1FF0546074C084E3E
:10379800B44200D370BD63685B792BB123685B6862
:1037A80013B12946204698471034F1E784E2000017
:1037B80094E2000010B5044C0449204608F049FD85
:1037C800034B1C6010BD00BFF4080020C8E30000D4
:1037D800903C002008B50023074A4FF400411370BD
:1037E800064A07481360074A1360FFF783FFBDE8DE
:1037F8000840FFF7DFBF00BF6D760020983C00202F
:103808003FC700009C3C00200146002200230148DD
:1038180008F040BDF4080020014808F0D6BD00BFFC
:10382800F4080020024B0146186808F022BE00BFC9
:10383800903C0020014808F057BE00BFF408002063
:1038480070B5264B1878002847D0FFF7E5FF0546E6
:1038580070B1234BD3E8EF1F0139C3E8E21F002AF8
:10386800F8D1204C204EB4422DD32846FFF7DAFF7A
:103878001E4B1F4C1B68002B19DD09F014FF4FF479
:103888007A72A0FB020302FB0131C30B43EA4143F6
:10389800D4E900209B1A40F2E9324FEAD13161EBBA
:1038A8000001934271F1000101D3FFF76BFFD4E9E6
:1038B800003213F57A7342F10002C4E90032BDE820
:1038C8007040FFF7B7BF63685B7923B12368294667
:1038D80020461B6898471034C5E770BD6C760020F9
:1038E8009C3C002084E2000094E20000983C002008
:1038F800803A002070B50D4D297861B90120FFF795
:10390800ABFE0B4C0B4EB44206D3FFF799FF0028D1
:10391800FBD101232B7070BD63685B791BB12368F1
:1039280020469B6898471034EDE700BF6D7600206D
:1039380084E2000094E2000000212DE9F0470846E7
:10394800FFF78AFE044648B340F267684FF0000963
:1039580006F09EFA1A4B186030B11A4B1B68092BF7
:1039680002DD194805F04CFF0025184FDFF858A074
:1039780044B12046FFF70AFE044618B94FF0FF3855
:103988004FF0FF39FFF75CFF064628B9B5B9424644
:103998004B46504605F058FF3546E9E74FF0FF38EB
:1039A8004FF0FF39D4E72B689B691BB100222846EA
:1039B800114698471035BD42F5D3E8E7044DFAE7BC
:1039C800943C00209C3C0020EC09002094E200007C
:1039D80084E2000013B5184808F0AFFE174B1B78B7
:1039E80073B1EFF31184202383F31288BFF36F8F31
:1039F800FFF726FF84F31188BFF36F8F02B010BD65
:103A08000F4B1B68002BF9D050B9002200230D483A
:103A1800CDE900234FF40042002306F08FFCEDE7C8
:103A28000928EBD1074809F04CFE074802B0BDE869
:103A3800104005F0E5BE00BF9C3C00206D760020DC
:103A4800943C0020883A0020EC09002010B5064B71
:103A580004461B6898472146A060044808F096FC75
:103A6800BDE81040FFF7B6BFC4040020F4080020EA
:103A7800044A054B9B1AB1EBD30F34BF52F83100FF
:103A88000020704714E2000084E20000084B10B4E4
:103A9800C31A44681B110133237143689A710122C8
:103AA8004368196043685A7110BCFFF733BE00BF02
:103AB80084E200002DE9F04F8FB0C1F34A2804AF2B
:103AC8000D469146B8607B600C0DB8F1000F63D0CD
:103AD80000264FF0040B4FF00A0A07F11403C7F849
:103AE8000C80C7E907667E620193CDF808B0CDF86F
:103AF80000A007F11C0332464846F968FEF724FE89
:103B0800B0F5006F03461CD36C468AB0D9F8041090
:103B180004AB26481A46C3E9050140F2FF71D96192
:103B28004FF400711984224B42F8103F4FF41251A0
:103B380033462048FFF7BEFFA5462C37BD46BDE8F3
:103B4800F08FC0F30A0804F11700184420F00700AA
:103B580080083B60FFF758FE68F35325044690B190
:103B68003B6800F11001C7E9083607F11403F96151
:103B7800CDE900A3CDF808B048460F4AF96807F127
:103B88001C03FEF7E1FD68F353252A4620467B68AF
:103B9800B96808F004FED0E704F1170020F0070028
:103BA8008008FFF731FE0446EDE700BFD6040200A7
:103BB800040000013CE200007BC700002DE9F04F43
:103BC80087B00446DDE9105ADDE912799346984634
:103BD8000391BFB13B46524610210020CDF800901A
:103BE800CDF81490FEF7DEFBB0F5006F06460AD359
:103BF80040F2FF730221174A174807B0BDE8F04F9B
:103C080008F026BE3E4605F11700304420F00700B4
:103C18008008FFF7F9FD04F007040BF0070BE40038
:103C280044EA8B1444EA462444EA0554054640B164
:103C38003FB13B4652463146CDF800901030FEF772
:103C4800B1FB434622462846039907B0BDE8F04F2A
:103C580008F0A5BD150502003CE20000406820B14F
:103C6800034BC01A40F3CF0070474FF0FF30704746
:103C780014E200000EB403B503AB53F8042B01465D
:103C88000448019308F015FE02B05DF804EB03B098
:103C9800704700BFC9C80000CA0605D48B064CBFD0
:103CA80002490349FFF7E6BF704700BF4E0502000F
:103CB8004D0502002DE9F04F89B09A46149B9DF8F6
:103CC8004CB00693159B04460593169B0D469046EB
:103CD800179E0493BBF1000F00F09D8006F48073DB
:103CE800079308F044FD06F00209024600283ED07A
:103CF80020469249FFF7BEFF0746B9F1000F08D0EA
:103D080016F0440F35D12A4620468D49FFF7B2FFF9
:103D1800074406F0010353B18A4B204653F82B2081
:103D2800894B8A49002A08BF1A46FFF7A3FF06F401
:103D38008073002B49D006F00803002B63D1B8F13B
:103D4800000F66D0424620468149FFF793FF05469B
:103D5800069B3D44002B6DD1049B002B73D1F307C8
:103D680000F1E58031462046FFF796FFD9E0074687
:103D7800C3E7784B18680028CAD0774B4FF47A7994
:103D88001B684FF46161B5FBF3F5B5FBF0F300FB7D
:103D9800135509FB05F5B3FBF1F2B5FBF0FE4FF047
:103DA8003C0C01FB123100FB1E55B1FBFCF309FB77
:103DB80005F5B5FBF0F50CFB131120460091CDE994
:103DC80001E56649FFF756FFA2E706F00803EBB1E5
:103DD800634B204653F82B206249FFF74BFF0546FB
:103DE800B8F1000F05D0424620465949FFF742FF77
:103DF8000544BAF1000FABD0524620465A49FFF7A6
:103E080039FF0544A4E74FF0000AE1E706F008058A
:103E1800E6E745469CE7BAF1010F069B06D1002B61
:103E280065D1049B002B7CD000250CE0002BF8D03A
:103E38004E485DE04E48069B22464E4908F068F819
:103E4800049B002B69D0DFF83081DFF83091049FA4
:103E58003146102F204628BF10274FF0000AFFF7E1
:103E68001BFF554546DC059B494620461A78FFF757
:103E780001FF4FF0010A1AF0070F03D1414620460F
:103E8800FFF7F8FE57453CD9059B4946204613F8ED
:103E98000A20FFF7EFFE0AF1010ABAF1100FEAD182
:103EA8004FF0000A20463649FFF7E4FE5246059BCC
:103EB80020469A5C334B995C11F0970F08BF2E226D
:103EC8003149FFF7D7FE0AF1010ABAF1100F1DD0E8
:103ED8001AF0070F03D141462046FFF7CBFE57459E
:103EE8005246E4D841462046FFF7C4FEEBE7204897
:103EF8005D46A0E741462046FFF7BCFE0AF1010AED
:103F0800AFE720462149FFF7B5FEC4E7059B3B44D0
:103F18000593049BDB1B049399D1BBF1000F7FF43D
:103F28001EAF204609B0BDE8F04F08F0B5BC2046EA
:103F3800054A0649FFF79EFE14E700BF5505020033
:103F480059050200ECE30000500502007E0502005E
:103F580081050200A83C0020A43C00206205020064
:103F680000E40000850502008B050200F7C8000088
:103F7800C9C80000BBC800009805020090050200EF
:103F88009A050200A61302009C050200960502008D
:103F980042F20F7373B58B4228BF0B46056804467F
:103FA800052168460D4A08F02AF80646636828463F
:103FB8000B225B680A4908F061FC6368324669466F
:103FC80028465B6808F05AFC63681B2228465B6831
:103FD800044908F053FC02B070BD00BF4411020050
:103FE800BB0502009F05020000210123064A9042FA
:103FF80006D8064A01B901231360054B18607047BB
:10400800012140085B00F2E740420F00A43C002079
:10401800A83C00200122014B1A7070476E760020E0
:10402800014B002019607047C03C00200148FFF791
:10403800AFBF00BF30E4000010B5064B0C4618684F
:10404800FFF752FB2146BDE8104003460F22024805
:10405800184700BFC03C002030E400000122F8B53A
:10406800084B094D094E1A70D5E900470CB92C6068
:10407800F8BD214630463A4600F01EF8241A064498
:10408800F4E700BF6F760020B43C00207076002073
:1040980010B9074B18707047064B1B781BB141F2DB
:1040A800883009F037B9A420002105F0D3BE00BF3D
:1040B8006E7600206F7600202DE9F84380460E4684
:1040C8000424DFF870901C4F99F8005095B905F05A
:1040D8003FF828463246414604F0A8FF054605F059
:1040E80041F8E5B101233B7099F8003073B93046C7
:1040F800BDE8F88332464146002004F097FF0546A4
:10410800EFE72046651EFFF7C3FF2C46002005F0A9
:1041180015F80028EBD03B78002BF2D1E7E73B7885
:10412800002BE4D0013C2046FFF7B2FF3B78002B80
:10413800CAD1DCE76F7600206E760020014B036061
:104148000020704740E4000008B5044807F04AFF23
:10415800BDE80840024807F045BF00BFFD05020062
:1041680032060200014806F085B900BF40E40000AD
:1041780038B5044618B90F4B0F485B689847616813
:10418800B1F5683F10D0B1F5680F0DD00B4DA942BD
:104198000AD011F46861206807D00146084809F080
:1041A80016F900232360656038BD142209F0E4FA8B
:1041B800F9E700BFB4060020600602002C5F5CA986
:1041C800C441002008B560B34368B3F5683F0ED01A
:1041D800B3F5680F18D0144A934220D000684FF006
:1041E800FF324FF0FF3305F057FA58B115E00122BE
:1041F8000368D3E8EF1F002903D1C3E8E02F0028A4
:10420800F7D10AD1002008BD0368084A1B7803F5D6
:10421800807352F82330002BF4D00548F3E70548A3
:10422800F1E76FF4E040EEE72C5F5CA90000035073
:10423800E98FFFFFEA8FFFFF08B520B34368B3F5A6
:10424800683F09D0B3F5680F13D0114A93421DD0C7
:10425800006805F099FA14E000220368D3E8EF1F1C
:10426800012903D1C3E8E02F0028F7D109D0094874
:1042780008BD00210368084A1B7803F5807342F8DB
:1042880023100020F4E76FF4E040F1E70348EFE77C
:104298002C5F5CA9E98FFFFF00000350EA8FFFFF46
:1042A80010B5044618B91D4B1D485B6898476368EC
:1042B800B3F5683F2FD0B3F5680F2CD0194A934255
:1042C80019D1236803BB4FF0FF324FF0FF3321466B
:1042D800154805F00BF908B923681BB90F4B1348AB
:1042E8005B68984714220021206809F045FA4FF4CA
:1042F8006863636008E0B3F5683F0DD83A2B03D0D4
:1043080040F6BA629342DED1206809F0A7F86368E4
:1043180043F03A03636010BD054AF3E7B406002092
:10432800600602002C5F5CA9C441002086060200DA
:104338003A00003A08B5064940231422054809F016
:1043480038F8BDE808400449044806F005B900BF3C
:10435800C43C0020C441002048E400005CE40000A4
:104368002DE9F04706460C4600AF002936D0D1E9C2
:104378000012E9468AB06D46A3684FF0050AA846C0
:104388001F48C5E90723C5E9050148F810AF002310
:1043980042464FF421511B48FFF78CFBD4E9031226
:1043A800CD466369AD461848C5E90723C5E9050147
:1043B800C5F810A0002342464FF421511148FFF7D9
:1043C80079FBCD46E3690121104A0E4808F040FA0E
:1043D800A36901210E4A0B4808F03AFA012E07D1C9
:1043E800EFF305830B4A31460648103B08F030FAD4
:1043F8002146304604F0CCFEBD46BDE8F08700BF3C
:10440800B30602005CE20000E206020011070200A7
:10441800200702004E07020030BFFFF7FDBF00BFB4
:10442800074A936893F90E10002907DB52699342F3
:104438001FBF044A536843F080535360704700BF5E
:104448005844002000ED00E070B52A4C06460D46A1
:1044580029482A4908F09AFAA36ADB0647D526486C
:10446800274908F093FA1120A36A1C0704D52248AB
:10447800244908F08BFA12201E4CA36A990712D51A
:1044880021491D4808F082FA636BA26A120609D511
:1044980001211E4A184808F0DBF91EB1A36A23F06F
:1044A8008003A3621320134CA36ADE0704D51248C5
:1044B800174908F06BFA1420A36A9C0604D50E4825
:1044C800144908F063FA15200A4B9A6AD10658BFB6
:1044D8009A6A9A6A920642BF5A6A22F400525A624B
:1044E8009A6A42F0FF029A6200232B7070BD102076
:1044F800BAE700BF00ED00E05CE2000061070200DF
:1045080077070200AA070200BD070200D5070200CC
:10451800EB0702000A08020010B5244C244925487C
:1045280008F034FAA36A99013ED52248224908F0D6
:104538002DFA1E20A36ADA0104D51E481F4908F087
:1045480025FA1F20194CA36ADB0204D519481C4917
:1045580008F01CFA0220A36A1C0304D5154819495F
:1045680008F014FA2120114CA36A590304D5114804
:10457800154908F00BFA2220A36A9A0304D50D48BE
:10458800124908F003FA2320084CA36ADB0304D578
:1045980008480F4908F0FAF92420A36A6FEA034390
:1045A8006FEA1343A36210BD1D20C3E700ED00E0CE
:1045B800390802005CE200005108020064080200A9
:1045C8007E080200A8080200C6080200EB080200E4
:1045D8000509020070B5294C06460D4628482949A8
:1045E80008F0D4F9A36AD9043CD52548264908F02F
:1045F800CDF91720A36A1A0504D52148234908F0E4
:10460800C5F918201D4CA36A9B0512D51C482049E2
:1046180008F0BCF9A36BA26A100409D501211D4A50
:10462800174808F015F91EB1A36A23F40043A362E2
:104638001920124CA36A590504D51148164908F0E7
:10464800A5F91A20A36ADA050ED50D48134908F012
:104658009DF91B20094A936A43F47F439362002320
:104668002B7070BD1620C5E7A36A9B04F2D50448D9
:104678000B4908F08BF91C20ECE700BF00ED00E0C7
:104688005CE200003009020046090200AA070200A5
:10469800570902007009020085090200A0090200FA
:1046A8000A0802002DE9F0418AB0654B0446D3F8A8
:1046B8000480002600AFC8F3080586F31188BFF30D
:1046C8006F8F02F07F43B3F17F4F07D102F00C03E5
:1046D800082B12D15B495C4808F058F9002634468B
:1046E8000023FB71EB1E092B00F28980DFE803F041
:1046F8000A7F827C87878787878510074CBF0C468F
:104708000126EDE75149504808F040F900234C4D87
:10471800FB71EB6A9A0705D54D494B4808F036F905
:10472800002332E0EB6A002B01DA4A49F5E7EB6A2D
:104738005B00F5D54849444808F028F96B69A26937
:1047480043F480736B61BFF34F8FBFF36F8F6B6957
:1047580032F8022C23F480736B61BFF34F8FBFF3E1
:104768006F8F4DF602739A4208D0AB6ADBB273B30F
:104778000120F91DFFF768FE034606E023680121C2
:10478800364A314808F064F82368FA79DAB907F14B
:10479800080504F1200C2A4620686168083403C221
:1047A80064451546F7D17A6A002E44D0C2F3080151
:1047B80021B96FEA52226FEA42227A62184607F15B
:1047C8000801FFF7CDFD2837BD46BDE8F081AB6A8B
:1047D80013F47F4F04D00120F91DFFF7FBFECBE750
:1047E800AB6AB3F5803F9BD3FFF796FEC4E7002082
:1047F800F91DBFE70020F91DEFE719498DE7194AB0
:1048080018F4F87FE8468AB0174B18BF13466A4673
:104818001649103DC2E905134FF400731384144B75
:10482800D56142F8103F00234FF411510648FFF7B5
:1048380041F9C54674E722F4FF7222F00102BCE791
:1048480000ED00E0E60902005CE20000110A020047
:10485800280A0200490A0200570A0200760A0200E2
:10486800920A0200CD090200B8090200B60A020045
:1048780004000001064B5A6942F010025A615A6955
:1048880042F480625A615A6922F008025A617047FC
:1048980000ED00E0EFF30880EFF3098101B57246FF
:1048A800FFF700FF01BD00BF002080F31488BFF3AD
:1048B8006F8F002080F30A8880F30B8802F088FE4F
:1048C80000200E490860BFF34F8F0D4880F3088819
:1048D80000F02CF8202080F311880A484FF400617A
:1048E800401880F30988EFF314800221084380F30D
:1048F8001488BFF36F8F00F0FDF8000094ED00E01E
:1049080088A5002088790020002318460649D1F898
:104918009020C2F30722934200DB7047C1F8983019
:10492800C1F8A0000133F6E700ED00E010B572B65B
:10493800002484F31388FFF7E7FF23464FF0FF3086
:104948000C4A03F120010133102B42F82100F8D161
:1049580000234FF0FF30074A03F160010133102BA9
:1049680042F82100F8D162B6BFF34F8FBFF36F8FC3
:1049780010BD00BF00E100E0084B9B6883420BD1EB
:10498800EFF3058343B1064B5A6842F080525A60F0
:104998005A6A22F400425A6208F04ABE584400207B
:1049A80000ED00E06FF00A01084A9368996708492A
:1049B80058674B6843F080534B60002383F311889A
:1049C800BFF36F8F9368986F704700BF58440020FB
:1049D80000ED00E0EFF31183202383F31288BFF387
:1049E8006F8F4FF00061064A53699360054A516022
:1049F80000215A6F596782F31188BFF36F8F704790
:104A08005844002000ED00E00E498A684FF030005D
:104A18001044EFF3098C80E8F01F74467046FFF7E6
:104A2800D9FFA64607498A6802F1300090E8F01FCE
:104A38008CF3098802F1000004B507F0AFFFBDE868
:104A480004407047584400201EF0040F0CBFEFF3D9
:104A58000880EFF30980816911F8021C0229FFD050
:104A680001B507F088FF01BD40B2002807DB01232C
:104A78004109034A00F01F00834042F82130704783
:104A880000E100E040B200280CDB0122064943099E
:104A980000F01F008240203341F82320BFF34F8FDE
:104AA800BFF36F8F704700BF00E100E0054B42097C
:104AB80053F82220012300F01F0003FA00F01040F1
:104AC800704700BF00E100E040B2002801F1010199
:104AD800ACBF00F16040064B4FEA4111C9B2ABBF11
:104AE80000F5614000F00F0080F80013195470477A
:104AF80014ED00E00B4A08B50B4B22F07F029A60D8
:104B0800BFF34F8FBFF36F8FD3F8882022F4700262
:104B1800C3F8882004F028FC05F046FA00F046F8AF
:104B280004F062FC0000000000ED00E042F8203CC8
:104B3800009B0B4942F81C3C019B21F0010142F803
:104B4800183C029B42F8081C42F8143C4FF0807352
:104B580042F8043C0023203A02654367704700BFCF
:104B680021C0000000B50B4B0E4698601546436EF9
:104B780083F30B882C4686F309884FF00000064B18
:104B8800984720464FF000014FF000024FF0000315
:104B9800024C204758440020ADC9000021C0000045
:104BA8001022014B1A61704700ED00E0002320211C
:104BB8000348C2180133452B82F80013F9D1704716
:104BC80000E100E008B5EFF30583064A103B02EB6D
:104BD800C30152F8330049688847BDE80840FFF729
:104BE8001FBC00BFECDF00001FB5094C094A234673
:104BF8000121094800F012F900230393074B012112
:104C0800E41A01A80193029400F012F904B010BD4F
:104C180000000720000000206CE40000000A0020CB
:104C280010B50C7A0B6804F01F0223F01F031A4317
:104C3800CB68640923F01F03054943EA440343F0A2
:104C48000103C1F89800C1F89C20C1F8A03010BD3C
:104C580000ED00E010B50A4BD3F89030C3F30723FA
:104C6800013B984208D901210346064A064807F045
:104C7800EFFD6FF0150010BDFFF7D2FFFBE700BF97
:104C880000ED00E0CD0A020054E200002DE9F04FEB
:104C98008946144606464FF00008514D85B0C84570
:104CA80027DAD6F804A0BAF1000F44D0BAF11F0FE2
:104CB80017D91AF01F0F14D1D6F800B01BF01F0F28
:104CC8000FD1584607F0AAFE07460AEB0B00013839
:104CD80007F0A4FE874210D06FF01507414A3B4603
:104CE80001E04346404A0121404807F0B1FD6FF01A
:104CF8001504204605B0BDE8F08F17F1160FEDD06A
:104D0800BC42EBDDC5F89870D5F89C10C5F89870D2
:104D1800D5F8A03021F01F0143F01F0BD6E900326F
:104D28001A44994202F1FF3A1DD1D34507D13146C1
:104D3800F8B207F07CFE08F101080C36AFE73146FF
:104D4800C5F89870D5F89C3022F01F0203F01F03B5
:104D58001343C5F89C30E0B207F069FE10F1160F56
:104D6800C5D0441CE7E7C5F89870D5F8A020013BEA
:104D780023F01F0302F01F021343D3453146E0B26C
:104D8800C5F8A030E8D007F052FE10F1160FAED0EB
:104D9800C5F89870D5F89C209DF808300BF1FF3BBA
:104DA80062F304038DF80830D5F8A0309DF8082088
:104DB8005B0863F347128DF80820D6E900321344E4
:104DC800009323F01F035B44A3EB0A03013023F095
:104DD8001F036946C0B20393FFF73CFFBEE700BF5D
:104DE80000ED00E0160B0200F30A020054E2000096
:104DF8000522044BC3F89420BFF34F8FBFF36F8F86
:104E0800704700BF00ED00E0BFF35F8F0022024B48
:104E1800C3F89420704700BF00ED00E010B5034CC4
:104E28002278FFF733FF207010BD00BF8076002086
:104E38002DE9F74F294D8A4606464FF00008AB4644
:104E4800274FD0451BDAD6F80490B9F1000F3FD0B0
:104E580031680846019107F0E1FD0199044609EB24
:104E68000100013807F0DAFD84424FF014021D4BAF
:104E780008D002FB08F36FF015024BF8032003B0CB
:104E8800BDE8F08F14F1160F2C60F8D01978A14204
:104E9800F5DD02FB08B0C7F89840C7F89840D7F886
:104EA8009C4000F10801007B64F304000871D7F806
:104EB800A0000C79400860F347140C71D7F89C10D7
:104EC80021F01F016960D7F8A01021F01F012961A6
:104ED80008F1010814350C36B3E700BFE0410020A3
:104EE80000ED00E080760020F0B54149414CD1F852
:104EF80090302568C3F307239D4287B075D80020FA
:104F0800FFF782FF3C4BC1F8C030854216D13B4CBD
:104F180001A82570FFF712F900250646384FAE4262
:104F280013D1002023783249D1F89020C2F3072208
:104F3800934254DBFFF75CFF00202FE0616801EB30
:104F48000011FFF76DFE0130DFE70199280101EB41
:104F58000513DA683A40B2F5001F21D0B2F5800F88
:104F68002BD0B2F5801F38D15A689B680958013B8D
:104F780022F01F0003440120844623F01F0340EA67
:104F88004C10CDE902218DF8100002A92078059374
:104F9800FFF760FE00281DDA6FF0150007B0F0BDBE
:104FA8005A689B680958013B22F01F0003444FF0E0
:104FB800020C012023F01F03E1E75A689B68095897
:104FC800013B22F01F0003444FF0000C022023F0A5
:104FD8001F03D4E723780133237001359FE7C1F815
:104FE8009830C1F8A00001339EE74FF0FF30D5E7B5
:104FF80000ED00E078E40000AAFF4400807600207D
:105008000000F0FF014B1860704700BFEC0400205F
:10501800F8B506460D460024064FAC4208DA3B6850
:1050280098470A28305504F1010401D00D28F4D11D
:105038002046F8BDE8040020F8B50D46094F461E85
:10504800C0F10104A3199D4201DC2846F8BD73781C
:105058000A2B02D10D203B6898473B6816F8010FD0
:105068009847EFE7EC04002010B5074C2368C218F6
:105078000648C0F1005101F5E0218A4236BF22609E
:105088004FF0FF30C01810BDF441002088A5002063
:1050980008B5054806F0A6FF002383F31188BFF37F
:1050A8006F8F0423184602DF480B020000F01F022E
:1050B80040090DD001280DD1094B03EB8203D3F829
:1050C800002222F0E04242EA0171C3F80012704760
:1050D800044BF2E70023803253F82230FFDE00BF92
:1050E800002884500025845038B50124134B144DF2
:1050F800C3F8004502230321C5F8D0360020FFF786
:10510800D5FF20460321FFF7D1FFC5F80447214604
:10511800C5F804492120C5F8004BFFF7C7FF214611
:105128002020FFF7C3FF21460B20FFF7BFFF2146D2
:105138000A20FFF7BBFF002038BD00BF0010005059
:105148000040005007B50DF1070002F06BFB114B52
:1051580098421CD14FF480620F4B1049C3F8B82510
:105168004FF40062C3F83C259DF8070007F00FFFD5
:105178000B499DF8070007F005FF01209DF807304F
:10518800984002F043FB002003B05DF804FB6FF089
:105198000B00F9E70000AD0B00A002502CA0025054
:1051A80028A10250052370B5144D154E2C780134F2
:1051B800B4FBF3F303EB8303E41A07F0D1FE114ABF
:1051C800137823B156F82430C01A072814D94FF0A1
:1051D8005023D3F8141141B10021C3F81411D3F8A6
:1051E80014312C700CB9012313702C7807F0B8FE19
:1051F80046F82400012070BD0020FCE782760020DC
:10520800F84100208176002048B1054B054A1B680B
:10521800B3FBF2F35843044B43F0010318477047BC
:105228000C06002040420F00D0E20000014902486D
:1052380007F0C2B9A0E400000C4200204FF47F033D
:105248002DE9F041D3F830210646072A0D46D3F858
:10525800343120D1023B032B02D8124AD35CD3B19C
:105268004FF050244FF0010800270520C4F8188695
:10527800C4F8147607F084FE4046C4F8148607F094
:105288007FFEC4F81476C4F8187630462B46BDE87D
:10529800F041002118474FF050230022C3F814268C
:1052A800F3E700BF550B020073B5069CC4F307264D
:1052B800304601F081FFE5B20146284607F06CFE52
:1052C800002201200A4BA40B04F0FC041A51094BDC
:1052D800A84000938DF8042002F09EFA304602F0B0
:1052E8001FF92946684602F093FB02B070BD00BF63
:1052F80080A00250007001507FB52C4B01A9029389
:10530800002302A88DF80C3002F07AFB284B984253
:1053180048D102F0E7F8041E0BDA9DF8041002A841
:1053280002F076FB01212346224A234807F090FA2F
:1053380035E040F60703214D8DF80540AE68ADF81D
:1053480006307468019B14B96FF05704EAE7082126
:1053580028461B4AA047041EE4DB3369002BF3D020
:105368000122082128469847041EDBDB01209DF80E
:105378000430984002F04AFA9DF805009DF8045060
:105388009DF8076007F0D6FD0146284607F0FFFDA7
:105398000C4BB60045F000459D51002CC2D120466B
:1053A80004B070BD6FF01204BCE700BF007001507C
:1053B8000000AD0B590B02007CE200009CDF0000EE
:1053C800D153000080A102502DE9F34114468368AF
:1053D8001B690BB100229847C4F30726304601F039
:1053E800F3FE0546304607F0A5FD4FF00008E7B28A
:1053F8000146384607F0D4FD104B220E920043F8C0
:105408000280304601F0D8FE0D4A4FEA943C0CF079
:10541800FC0C47F0004342F80C300146384607F0D0
:10542800B1FD084B05F13202009330464346019422
:10543800520007F089FD02B0BDE8F08180A102505A
:1054480080A00250B1520000084B70B5C31A0D4637
:1054580007499B10044659434022064807F041FB80
:105468002B4601462046BDE8704018473C420020C4
:10547800B76DDBB660DF0000402373B50B4C0093BB
:10548800041B0B460D460A49A41061430646094A07
:10549800094807F051FB011E05DA30462B4602B0D9
:1054A800BDE87040184702B070BD00BF3C42002004
:1054B800B76DDBB6A9CB000060DF000010B5EFF3D5
:1054C8001184202383F31288BFF36F8F074A136870
:1054D80023F00201DB07116002D4012007F015FE5A
:1054E80084F31188BFF36F8F10BD00BFDC4200202A
:1054F8002DE9F8430022012106460520FFF7E4FACA
:10550800144802F095F9144B98421FD14FF05023DC
:1055180043F6CD32C3F85C2502F09AF900244FF027
:105528001C090C27DFF834803569414609FB045013
:1055380007F042F8002807DB012307FB04551C4449
:10554800042CAB67F0D10020BDE8F8836FF00400AD
:10555800FAE700BF615600000000AD0BACE40000A4
:105568001FB500220123CDE902236B46084ACDF876
:1055780000D0CDF804D007F00CFB002805DB4FF471
:1055880080420023684604F05FF905B05DF804FB2B
:10559800DFCB00000C22104B014602FB0033002039
:1055A80030B4D3E91C521867EFF31180202484F338
:1055B8001288BFF36F8F9C6F04F0C00444F002049C
:1055C8009C6780F31188BFF36F8F1DB12B4630BCE9
:1055D8000248184730BC70473C42002060DF00009A
:1055E80010B4EFF31182202383F31288BFF36F8F77
:1055F8001748016841F002040460C80707D482F321
:105608001188BFF36F8F012010BC02F039B94FF039
:105618005021D1F80C04D1F80C14C907EFD5EFF3D9
:10562800118083F31288BFF36F8F0A498B6F03F0E1
:10563800C00343F002038B6780F31188BFF36F8FB9
:1056480082F31188BFF36F8F002010BCFFF7A2BF51
:10565800DC4200203C420020062812D8DFE800F097
:10566800040F1111110D0B00064B986F10F0070075
:1056780007D1FFF78FBF0220FBE70320F9E70120DE
:10568800F7E770473C420020C3B21C20014A03FBE5
:10569800002070473C4200202DE9F04101220746D6
:1056A8003649D1E8EF3FC1E8E02F0028F9D133B9F6
:1056B800334934484B60CB608A6006F090FF7B1E0C
:1056C800012B2BD8012F07D14FF05023D3F81C34CE
:1056D80003F00303022B21D007F0D3FE0546F8B9E7
:1056E800294B1B78E3B14FF0502302220646C3F83A
:1056F80008234FF05024DFF89480D4F81824D4F805
:105708001834D20315D503F00303022B01D0012F5F
:105718000FD16DB386F31188BFF36F8FBDE8F081A9
:10572800EFF31186202383F31288BFF36F8F0125CF
:10573800DFE7C5B1304607F055F9D4F81835DBB2C4
:10574800012BDAD1D4F80421002AD6D00022C4F8DB
:105758000421D4F804210222C4F818252022C8F80C
:105768008021A360C9E70021212004F073FBE4E74E
:105778004FF050230222C3F80423CFE73842002019
:1057880028420020584200208476002000E100E0F2
:1057980010B5044C2046FDF7B7F92046FFF732FC58
:1057A800002010BDB157000073B5044603250F4E05
:1057B8008DF80700012200200DF1070103F0A6FC77
:1057C80020B101233370204602B070BD3378002B1E
:1057D800F9D0013D08D007F054FE0028EAD1002195
:1057E800422004F037FBE5E73570ECE783760020CC
:1057F800024B0B6001231360704700BF84E5000073
:105808000048704704E500000268154BFF2A08BFEE
:105818004FF0FF32C3F824254268FF2A08BF4FF033
:10582800FF32C3F828258268FF2A08BF4FF0FF32ED
:10583800C3F83025C268FF2A08BF4FF0FF32C3F80B
:1058480034250269FF2A08BF4FF0FF32C3F8382514
:105858004269FF2A08BF4FF0FF32C3F83C25704762
:1058680000B00250054B994206D14FF0FF324FF07D
:10587800FF33103003F0E8BF704700BF0000AD0BE6
:1058880000F1744000F5A60008B50A2816D8DFE82C
:1058980000F0061515151812151508151800002022
:1058A80008BD0121084A094806F0C9FF0121084A34
:1058B800064806F0C4FF6FF08B00F1E76FF00F00A9
:1058C800EEE76FF01500EBE7C40B020064E200009E
:1058D800EC0B020030B50D46416885B069B1D1E9DD
:1058E80000138468B4B1D4E90024A4B19BB19C42EC
:1058F80005D06FF0150005B030BD0B46F1E75C1C14
:10590800092C03780AD902210E4A0F48009406F0A0
:10591800A9FFEEE7224601331C44F1E78DF8083071
:1059280040F20113ADF80A30002302A88DF80C30BC
:105938008DF809408DF80D5003F022FAFFF7A0FF0B
:10594800D9E700BF270C020064E200002DE9F04F00
:1059580091B0436800AF5D6B80460021284607F18F
:10596800280207F0C8FA041E7FDBBB6A2A68197987
:10597800186801F0FBFA041E77DB002201212B20B6
:10598800FFF7A2F800254FF05023C3F8B8550720B9
:1059980007F0C0FCD8F80490D8F810207B49484696
:1059A80003F0CEF9FFF76CFF041E54DB784E07F1C5
:1059B80028040FCE0FC496E80300AB2307F1040AAE
:1059C80084E803007D60CAE901553B71714B07F11A
:1059D8002800D3F8242507F11006D2B23A61D3F88B
:1059E8002825D2B27A61D3F83025D2B2BA61D3F879
:1059F8003425D2B2FA61D3F83825D2B23A62D3F854
:105A08003C35DBB27B62FFF7FFFE012003F016FA9C
:105A180001463046FFF7F8FE5F4B99422AD12946E6
:105A28005046FFF757FF041E15DB232007F072FCD2
:105A38004FF0030B9F23C7E90A552946C7F810A062
:105A4800C7F814B087F828303E6307F12800FFF73D
:105A580041FF041E11DA4FF050230222C3F8B82583
:105A680003F00AFA08B103F0F5F920464437BD46B9
:105A7800BDE8F08F6FF00404EDE75A46514609F18E
:105A8800300007F042FE044618B36C468CB06A46F4
:105A980097F804E097F805C0BE7999F8300099F8AE
:105AA800311099F83230D3620823DFF8F080C2E968
:105AB80007C6C2E9058EC2E9090142F8103F44F25F
:105AC80040012B463648FDF7F5FFA5466FF0120456
